:100000000C9434000C943E000C943E000C943E0082
:100010000C943E000C943E000C943E000C943E0068
:100020000C943E000C943E000C943E000C943E0058
:100030000C943E000C943E000C943E000C943E0048
:100040000C943E000C943E000C9440000C943E0036
:100050000C943E000C943E000C943E000C943E0028
:100060000C943E000C943E0011241FBECFEFD8E04C
:10007000DEBFCDBF0E944F000C9469000C940000BD
:100080001F920F920FB60F9211248F938091C6008A
:1000900085B98F910F900FBE0F901F90189584B166
:1000A0008F7084B983EA84BD83E085BD89EF87BD05
:1000B00018BC82E080936E001092C50087E68093A2
:1000C000C40088E98093C10086E08093C2007894E0
:0600D000FFCFF894FFCF02
:00000001FF
