S01700004763634170706C69636174696F6E312E737265635B
S11300000C9424010C9443010C94B3010C946302EA
S11300100C9441010C9423020C9441010C94410171
S11300200C9441010C9441010C9441010C94410144
S11300300C9441010C9441010C948D020C944101E7
S11300400C9441010C9441010C9441010C94410124
S11300500C9441010C9441010C9441010C94410114
S11300600C9441010C944101000000000000005F69
S113007000000007000700147F147F14242A7F2A3D
S11300801223130864623649552250000503000008
S1130090001C2241000041221C0014083E081408E0
S11300A0083E0808005030000008080808080060EE
S11300B060000020100804023E5149453E00427F82
S11300C0400042615149462141454B311814127F89
S11300D01027454545393C4A494930017109050312
S11300E03649494936064949291E0036360000007A
S11300F0563600000814224100141414141400414C
S11301002214080201510906324979413E7E111137
S1130110117E7F494949363E414141227F41412276
S11301201C7F494949417F090909013E4149497AEE
S11301307F0808087F00417F41002040413F017F44
S1130140081422417F404040407F020C027F7F041C
S113015008107F3E4141413E7F090909063E415155
S1130160215E7F09192946464949493101017F0128
S1130170013F4040403F1F2040201F3F4038403F48
S11301806314081463070870080761514945430064
S11301907F41410002040810200041417F00040215
S11301A00102044040404040000102040020545435
S11301B054787F48444438384444442038444448BC
S11301C07F3854545418087E0901020C5252523E8E
S11301D07F0804047800447D40002040443D007FB3
S11301E01028440000417F40007C041804787C08F7
S11301F004047838444444387C141414080814144F
S1130200187C7C080404084854545420043F444097
S1130210203C4040207C1C2040201C3C4030403C82
S113022044281028440C5050503C4464544C44001E
S11302300836410000007F00000041360800100825
S1130240081008000000000011241FBECFEFD8E002
S1130250DEBFCDBF11E0A0E0B1E0E2EAF3E202C00C
S113026005900D92A833B107D9F723E0A8E3B1E0D4
S113027001C01D92A934B207E1F70E94E3040C9473
S1130280CF110C9400001F920F9200905F000F9208
S113029011242F933F934F935F936F937F938F9387
S11302A09F93AF93BF93EF93FF93CF93DF93CDB718
S11302B0DEB780913801882369F4809100018F5F53
S11302C080930001809100018330B1F581E0809337
S11302D0000132C080913801813069F480910101BC
S11302E08F5F80930101809101018A3029F581E0BB
S11302F08093010121C080913801823069F480919A
S113030002018F5F80930201809102018A30A1F47F
S113031081E08093020110C080913801833061F440
S1130320809103018F5F80930301809103018A30E0
S113033019F481E0809303010E9479050000DF91A4
S1130340CF91FF91EF91BF91AF919F918F917F9149
S11303506F915F914F913F912F910F9000925F00A9
S11303600F901F9018951F920F9200905F000F92AC
S113037011242F933F934F935F936F937F938F93A6
S11303809F93AF93BF93EF93FF93CF93DF93CDB737
S1130390DEB780913801882369F48091000181508F
S11303A080930001809100018823B1F582E080935D
S11303B0000132C080913801813069F480910101DB
S11303C081508093010180910101882329F581E006
S11303D08093010121C080913801823069F48091B9
S11303E00201815080930201809102018823A1F4CB
S11303F081E08093020110C080913801833061F460
S1130400809103018150809303018091030188232B
S113041019F481E0809303010E9479050000DF91C3
S1130420CF91FF91EF91BF91AF919F918F917F9168
S11304306F915F914F913F912F910F9000925F00C8
S11304400F901F9018951F920F9200905F000F92CB
S113045011242F933F934F935F936F937F938F93C5
S11304609F93AF93BF93EF93FF93CF93DF93CDB756
S1130470DEB789E290E0FC018081882F90E08071F2
S11304809927892B59F480910001813039F48091A6
S113049038018F5F809338010E9479050000DF9155
S11304A0CF91FF91EF91BF91AF919F918F917F91E8
S11304B06F915F914F913F912F910F9000925F0048
S11304C00F901F9018951F920F9200905F000F924B
S11304D011248F939F93EF93FF93CF93DF93CDB723
S11304E0DEB783E290E0FC018081882F90E0807485
S11304F09927892B29F480914A018F5F80934A01BF
S11305000000DF91CF91FF91EF919F918F910F9018
S113051000925F000F901F9018951F920F92009009
S11305205F000F9211242F933F934F935F936F9328
S11305307F938F939F93AF93BF93EF93FF93CF9347
S1130540DF93CDB7DEB780913B0190913C01A09140
S11305503D01B0913E010196A11DB11D80933B0167
S113056090933C01A0933D01B0933E0180913B01E7
S113057090913C01A0913D01B0913E0128E833E106
S113058040E050E0BC01CD010E94A40EDC01CB018F
S1130590892B8A2B8B2B09F066C090914A018DEC34
S11305A0989F812D112486958695282F30E04CE361
S11305B0429FC001439F900D1124092E000CAA0BE9
S11305C0BB0B8093430190934401A0934501B093E6
S11305D046012091430130914401409145015091DD
S11305E04601DA01C901880F991FAA1FBB1F880F92
S11305F0991FAA1FBB1F820F931FA41FB51F2CE2B4
S113060031E040E050E0BC01CD010E94A40EDA01CB
S1130610C9018F5F8093040120914301309144010B
S11306204091450150914601DA01C901880F991F93
S1130630AA1FBB1F880F991FAA1FBB1F820F931FDE
S1130640A41FB51F2CE231E040E050E0BC01CD0115
S11306500E94A40EDA01C901982F89E0891B8093B6
S1130660050110924A0180913B0190913C01A091B7
S11306703D01B0913E0124EF31E040E050E0BC0187
S1130680CD010E94A40EDC01CB01892B8A2B8B2B7C
S113069019F481E08093420180913B0190913C01E7
S11306A0A0913D01B0913E0120910301622F70E0C1
S11306B048EE53E0649F9001659F300D749F300DA8
S11306C01124032E000C440B550BBC01CD010E94D8
S11306D0A40EDC01CB01892B8A2B8B2B19F481E02E
S11306E08093410180910001813009F058C09091BC
S11306F0020180910301292F281B822F80933A0144
S11307009091010180910301890F809339018091B7
S11307103B0190913C01A0913D01B0913E0120919B
S11307200101422F50E06AEF649F9001659F300DF4
S11307301124032E000C440B550BBC01CD010E9467
S1130740A40EDC01CB01892B8A2B8B2B19F481E0BD
S113075080933F0180913B0190913C01A0913D0128
S1130760B0913E0120910201422F50E06AEF649F54
S11307709001659F300D1124032E000C440B550B82
S1130780BC01CD010E94A40EDC01CB01892B8A2B74
S11307908B2B09F05AC081E08093400156C09091A0
S11307A0050180910301292F281B822F80933A0190
S11307B09091040180910301890F80933901809104
S11307C03B0190913C01A0913D01B0913E012091EB
S11307D00401422F50E06AEF649F9001659F300D41
S11307E01124032E000C440B550BBC01CD010E94B7
S11307F0A40EDC01CB01892B8A2B8B2B19F481E00D
S113080080933F0180913B0190913C01A0913D0177
S1130810B0913E0120910501422F50E06AEF649FA0
S11308209001659F300D1124032E000C440B550BD1
S1130830BC01CD010E94A40EDC01CB01892B8A2BC3
S11308408B2B19F481E0809340018091060185305F
S1130850C0F580913B0190913C01A0913D01B09184
S11308603E0120913901422F50E06AEF649F9001CC
S1130870659F300D1124032E000C440B550BBC0155
S1130880CD010E94A40EDC01CB01892B8A2B8B2B7A
S1130890C1F480910601882321F0809106010E9411
S11308A01809809106018150809306018091060108
S11308B0882339F489E080930601809106010E941F
S11308C01809809106018530E0F1809106018A3093
S11308D0C0F580913B0190913C01A0913D01B09104
S11308E03E0120913A01422F50E06AEF649F90014B
S11308F0659F300D1124032E000C440B550BBC01D5
S1130900CD010E94A40EDC01CB01892B8A2B8B2BF9
S1130910C1F480910601863020F0809106010E9486
S1130920180980910601853039F4809106010E94EE
S113093018098BE080930601809106018150809311
S11309400601809106018A3049F580913B0190911E
S11309503C01A0913D01B0913E0120910301622F21
S113096070E048EE53E0649F9001659F300D749FE2
S1130970300D1124032E000C440B550BBC01CD018A
S11309800E94A40EDC01CB01892B8A2B8B2B31F422
S113099084E00E94180983E0809306010000DF913F
S11309A0CF91FF91EF91BF91AF919F918F917F91E3
S11309B06F915F914F913F912F910F9000925F0043
S11309C00F901F901895CF93DF93CDB7DEB784E2D5
S11309D090E024E230E0F90120812F77FC012083AC
S11309E08AE290E02AE230E0F90120812166FC01EC
S11309F020838AE290E02AE230E0F9012081237E1C
S1130A00FC01208387E290E027E230E0F9012081B5
S1130A102C77FC0120838BE290E02BE230E0F9019B
S1130A2020812C6DFC01208385E290E025E230E0FA
S1130A30F90120812068FC01208384E490E023EA0A
S1130A40FC01208385E490E023E0FC01208387E41B
S1130A5090E029EFFC01208388E490E0FC011082FF
S1130A608EE690E022E0FC01208389E690E02AE013
S1130A70FC0120838DE390E023E0FC01208388E6E1
S1130A8090E025E0FC0120838DE690E021E1FC016B
S1130A9020838BE690E020E4FC0120838CE790E047
S1130AA020E4FC0120838AE790E027EEFC01208308
S1130AB08BE790E0FC01108285EC90E0FC01108251
S1130AC084EC90E027E6FC01208381EC90E028E9A7
S1130AD0FC01208382EC90E026E0FC0120837894E2
S1130AE00E94C8090E9479050E94AB070E9423084E
S1130AF0FBCFCF93DF93CDB7DEB765970FB6F894EE
S1130B00DEBF0FBECDBF80910401882F90E0292F56
S1130B102F938F9388E091E0892F8F9388E091E061
S1130B208F93CE010B96292F2F938F930E94E50E5E
S1130B300F900F900F900F900F900F9080910501E0
S1130B40882F90E0292F2F938F9388E091E0892FAD
S1130B508F9388E091E08F93CE010D96292F2F93E8
S1130B608F930E94E50E0F900F900F900F900F90AF
S1130B700F908091430190914401A0914501B0915F
S1130B8046012B2F2F932A2F2F93292F2F938F93A7
S1130B9088E091E0892F8F9388E091E08F93CE01D4
S1130BA00796292F2F938F930E94E50E8DB79EB73A
S1130BB008960FB6F894DEBF0FBECDBF8091010139
S1130BC0882F90E0292F2F938F9388E091E0892F2D
S1130BD08F9388E091E08F93CE0101969F938F933A
S1130BE00E94E50E0F900F900F900F900F900F90B2
S1130BF080910201882F90E0292F2F938F9388E012
S1130C0091E0892F8F9388E091E08F93CE01039632
S1130C10292F2F938F930E94E50E0F900F900F9022
S1130C200F900F900F9080910301882F90E0292F4F
S1130C302F938F9388E091E0892F8F9388E091E040
S1130C408F93CE010596292F2F938F930E94E50E43
S1130C500F900F900F900F900F900F90809147017D
S1130C6090914801292F2F938F9388E091E0892F49
S1130C708F9388E091E08F93CE010F96292F2F93C5
S1130C808F930E94E50E0F900F900F900F900F908E
S1130C900F9080914901882F90E0292F2F938F93F3
S1130CA088E091E0892F8F9388E091E08F93CE01C3
S1130CB04396292F2F938F930E94E50E0F900F9048
S1130CC00F900F900F900F900E94480B8091380165
S1130CD0843010F010923801809100018130E1F4E9
S1130CE067E08BE10E949E0C61E08BE091E00E9442
S1130CF07B0C61E18BE10E949E0C61E0CE010196C8
S1130D000E947B0C6BE18BE10E949E0CCE0103964A
S1130D1061E00E947B0C1FC0809100018230D9F4F5
S1130D2067E08BE10E949E0C61E08DE091E00E94FF
S1130D307B0C61E18BE10E949E0CCE010B9661E07D
S1130D400E947B0C6BE18BE10E949E0CCE010D9600
S1130D5061E00E947B0C67E080E00E949E0C61E0F1
S1130D608FE091E00E947B0C61E180E00E949E0C88
S1130D7061E084E191E00E947B0C61E181E20E94E8
S1130D809E0C61E089E191E00E947B0C6BE180E0C4
S1130D900E949E0C61E08BE191E00E947B0C6BE170
S1130DA081E20E949E0C61E089E191E00E947B0C4B
S1130DB065E280E00E949E0C61E080E291E00E9486
S1130DC07B0C65E28BE10E949E0CCE01059661E0EE
S1130DD00E947B0C65E281E20E949E0C61E089E145
S1130DE091E00E947B0C60E080E30E949E0CCE01A7
S1130DF00F9661E00E947B0C60E083E40E949E0CED
S1130E0061E085E291E00E947B0C6CE080E30E944B
S1130E109E0CCE01439661E00E947B0C6CE08DE356
S1130E200E949E0C61E089E291E00E947B0C6AE1E1
S1130E3080E30E949E0CCE01079662E00E947B0C28
S1130E4069E282E30E949E0C61E08EE291E00E94DE
S1130E507B0C60E08BE20E949E0C61E084E391E0F5
S1130E600E947B0C67E08BE20E949E0C61E084E3AD
S1130E7091E00E947B0C6EE08BE20E949E0C61E08C
S1130E8084E391E00E947B0C65E18BE20E949E0C5E
S1130E9061E084E391E00E947B0C6CE18BE20E94B0
S1130EA09E0C61E084E391E00E947B0C63E28BE2A0
S1130EB00E949E0C61E084E391E00E947B0C6AE254
S1130EC08BE20E949E0C61E084E391E00E947B0C23
S1130ED080913801882351F467E087E20E949E0CD8
S1130EE061E086E391E00E947B0C29C08091380187
S1130EF0813051F461E187E20E949E0C61E086E357
S1130F0091E00E947B0C1BC080913801823051F427
S1130F106BE187E20E949E0C61E086E391E00E940F
S1130F207B0C0DC080913801833049F465E287E27F
S1130F300E949E0C61E086E391E00E947B0C0E947B
S1130F40B10C000065960FB6F894DEBF0FBECDBF9E
S1130F50DF91CF910895CF93DF93CDB7DEB7809122
S1130F604B01882371F485E290E020910701FC0194
S1130F70208381E080934B0110923F0185E08093B0
S1130F804C0180913F018130F9F480914B01813013
S1130F90D9F48091070181508093070185E290E0A4
S1130FA020910701FC01208380910701853051F4D1
S1130FB085E290E025E0FC01208382E080934B01F0
S1130FC01092410110923F0180914101813081F4DE
S1130FD080914B01823061F485E290E024E0FC01D1
S1130FE0208383E080934B011092410110924001D1
S1130FF080914001813019F580914B018330F9F4DF
S11310008091070181508093070185E290E020914F
S11310100701FC01208380910701882371F481E09A
S113102080934B0189E08093070185E290E0209151
S11310300701FC01208310923F011092400100003F
S1131040DF91CF910895CF93DF93CDB7DEB789E2D7
S113105090E0FC01808188231CF081E080934D01A5
S113106080914201813009F05BC080914E01882358
S113107019F588E790E0FC01808191819C0140E0B2
S113108050E088E19CE9AFE0B0E0BC01CD010E94F2
S1131090C60EDA01C901885E93409093480180939B
S11310A047018CE790E021E4FC01208380914E010C
S11310B08F5F80934E0134C088E790E0FC0180810B
S11310C09181CC01A0E0B0E0BC01CD010E94740D7F
S11310D0DC01CB012DE032E348E45DE3BC01CD014A
S11310E00E942B0EDC01CB0120E030E040EA50E40A
S11310F0BC01CD010E94D40CDC01CB01BC01CD01AB
S11311000E94450DDC01CB01809349018CE790E0FE
S113111020E4FC01208380914E01815080934E0194
S113112080914701909148018C32914020F4809144
S11311304D01813059F180914701909148018C32E1
S1131140914060F48091430190914401A091450144
S1131150B0914601892B8A2B8B2BC1F480914901D4
S11311608B3020F080914D01813081F080914901D4
S11311708B30A0F08091430190914401A0914501EE
S1131180B0914601892B8A2B8B2B41F088E490E0A7
S11311902FEFFC01208310924D0142C08091470142
S11311A0909148018C32914020F480914D01882324
S11311B059F180914701909148018C32914060F43B
S11311C08091430190914401A0914501B091460161
S11311D0892B8A2B8B2BC1F0809149018B3020F015
S11311E080914D01882381F0809149018B30A0F0DA
S11311F08091430190914401A0914501B091460131
S1131200892B8A2B8B2B41F488E490E02DE4FC019C
S1131210208310924D0104C088E490E0FC01108208
S1131220109242010E9479050000DF91CF91089548
S1131230CF93DF931F92CDB7DEB78983000080EC94
S113124090E0FC018081882F90E080729927892B9F
S1131250B1F386EC90E02981FC01208300000F901B
S1131260DF91CF9108951F93CF93DF9300D0CDB733
S1131270DEB789836A8388E290E028E230E0F901EE
S113128020812F7EFC0120838A81882351F088E20B
S113129090E028E230E0F90120812860FC012083FD
S11312A009C088E290E028E230E0F9012081277F3C
S11312B0FC01208310E03CC08981882F90E0212F1D
S11312C030E047E050E0BA01621B730B9B0102C09F
S11312D0959587952A95E2F781709927892B51F086
S11312E088E290E028E230E0F90120812460FC01EA
S11312F0208309C088E290E028E230E0F9012081EF
S11313002B7FFC01208388E290E028E230E0F901A1
S113131020812064FC01208388E290E028E230E010
S1131320F90120812F7BFC012083812F11E0180F0C
S1131330183010F288E290E028E230E0F9012081D0
S11313402061FC01208300000F900F90DF91CF916A
S11313501F910895CF93DF931F92CDB7DEB7898392
S113136060E089810E94330900000F90DF91CF91E2
S11313700895CF93DF931F92CDB7DEB7898361E0E1
S113138089810E94330900000F90DF91CF91089565
S11313900F931F93CF93DF93CDB7DEB76C970FB640
S11313A0F894DEBF0FBECDBF87E290E027E230E0C5
S11313B0F90120812061FC01208387E290E027E28B
S11313C030E0F90120812062FC01208387E290E073
S11313D027E230E0F90120812860FC01208387E2C4
S11313E090E027E230E0F90120812460FC012083B1
S11313F087E290E027E230E0F90120812064FC01DB
S1131400208388E290E028E230E0F9012081206224
S1131410FC01208388E290E028E230E0F901208199
S11314202061FC01208380E090E0A0E2B1E48983A4
S11314309A83AB83BC8320E030E04AE753E46981BC
S11314407A818B819C810E942B0EDC01CB018B8BDA
S11314509C8BAD8BBE8B20E030E040E85FE36B8972
S11314607C898D899E890E94400D88232CF481E01B
S113147090E0988F8F8B3FC020E03FEF4FE757E419
S11314806B897C898D899E890E94260E18164CF5DD
S113149020E030E040E251E469817A818B819C81D3
S11314A00E942B0EDC01CB01BC01CD010E94450D35
S11314B0DC01CB01988F8F8B0FC089E190E09A8F6C
S11314C0898F898D9A8D0197F1F79A8F898F8F89EA
S11314D0988D0197988F8F8B8F89988D892B69F7B9
S11314E014C06B897C898D899E890E94450DDC011D
S11314F0CB01988F8F8B8F89988D9C8F8B8F8B8D41
S11315009C8D0197F1F79C8F8B8F88E290E028E205
S113151030E0F90120812F7DFC01208380E090E000
S1131520ACE8B2E48D839E83AF83B88720E030E0DB
S11315304AE753E46D817E818F8198850E942B0E4A
S1131540DC01CB0189879A87AB87BC8720E030E038
S113155040E85FE369857A858B859C850E94400D10
S113156088232CF481E090E09E878D873FC020E0A3
S11315703FEF4FE757E469857A858B859C850E9408
S1131580260E18164CF520E030E040E251E46D815F
S11315907E818F8198850E942B0EDC01CB01BC01DA
S11315A0CD010E94450DDC01CB019E878D870FC0C4
S11315B089E190E0988B8F878F8598890197F1F75F
S11315C0988B8F878D859E8501979E878D878D85C6
S11315D09E85892B69F714C069857A858B859C85DE
S11315E00E94450DDC01CB019E878D878D859E85EC
S11315F09A8B898B89899A890197F1F79A8B898BC0
S113160088E290E028E230E0F90120812062FC01C8
S1131610208388E290E028E230E0F90120812F7EE7
S1131620FC01208381E20E94AA0983E10E94AA09A5
S113163086E00E94AA0982EC0E94AA0980E20E9424
S1131640AA0989E00E94AA0980E80E94AA0980E404
S11316500E94AA0900E010E005C080E00E94B909D8
S11316600F5F1F4F083FF1E01F07B8F388E00E94A7
S1131670AA098CE00E94AA0900006C960FB6F8949F
S1131680DEBF0FBECDBFDF91CF911F910F910895A3
S11316900F931F93CF93DF93CDB7DEB780E80E94FB
S11316A0AA0980E40E94AA091092470310924803F1
S11316B000E010E007C0C801815B9E4FFC0110826E
S11316C00F5F1F4F083FF1E01F07A8F30000DF91F1
S11316D0CF911F910F910895CF93DF9300D000D045
S11316E01F92CDB7DEB78B836C834D838C81869537
S11316F086958695882F90E044E5489F9001499F00
S1131700300D11248B81882F90E0820F931F815B11
S11317109E4F9A8389838D818823C9F089819A8118
S1131720FC018081482F8C81882F90E09C012770D8
S1131730332781E090E002C0880F991F2A95E2F7D1
S1131740842B282F89819A81FC01208319C08981E7
S11317509A81FC018081482F8C81882F90E09C0124
S11317602770332781E090E002C0880F991F2A95E3
S1131770E2F780958423282F89819A81FC012083B4
S113178000000F900F900F900F900F90DF91CF916A
S113179008950F931F93CF93DF9300D000D01F922F
S11317A0CDB7DEB78C836D8310E065C000E04EC01A
S11317B08C81882F90E09C01205231099D81812FDA
S11317C0692F0E94980E482F50E0C901880F991F75
S11317D0880F991F820F931F840F951F88599F4F5D
S11317E09A83898389819A81FC0184918B838B817B
S11317F0282F30E09D81802F692F0E94980E882F1A
S113180090E0A90102C0559547958A95E2F7CA016F
S113181081709927892B61F080914803982F900F4C
S113182080914703810F41E0692F0E946C0B0BC02C
S113183080914803982F900F80914703810F40E0D7
S1131840692F0E946C0B802F01E0080F402F50E09D
S11318508D81282F30E0C901880F991F880F991FA7
S1131860880F991F821B930B481759070CF4A0CFBC
S1131870812F11E0180F412F50E08D81282F30E087
S1131880C901880F991F880F991F820F931F48174A
S113189059070CF48BCF209147039D81892F880F22
S11318A0880F890F820F8F5F8093470380914703CE
S11318B0843570F010924703209148039D81892F4D
S11318C0880F880F880F891B820F8F5F80934803CE
S11318D080914803803320F010924703109248030C
S11318E000000F900F900F900F900F90DF91CF9109
S11318F01F910F910895CF93DF9300D01F92CDB71E
S1131900DEB79A8389836B830CC089819A819C0199
S11319102F5F3F4F3A832983FC0180816B810E94B2
S1131920C90B89819A81FC018081882371F70000A9
S11319300F900F900F90DF91CF910895CF93DF9385
S113194000D0CDB7DEB789836A838981809347034A
S11319508A818093480300000F900F90DF91CF910C
S113196008950F931F93CF93DF93CDB7DEB780E82D
S11319700E94AA0980E40E94AA0900E010E009C0BC
S1131980C801815B9E4FFC0180810E94B9090F5FF1
S11319901F4F083FF1E01F0798F30000DF91CF913C
S11319A01F910F9108955058BB27AA270E94EB0C52
S11319B00C94EC0D0E94DE0D38F00E94E50D20F031
S11319C039F49F3F19F426F40C94DB0D0EF4E095E2
S11319D0E7FB0C94D50DE92F0E94FD0D58F3BA17BF
S11319E0620773078407950720F079F4A6F50C9431
S11319F01F0E0EF4E0950B2EBA2FA02D0B01B9018A
S1131A0090010C01CA01A0011124FF27591B99F070
S1131A10593F50F4503E68F11A16F040A22F232F7C
S1131A20342F4427585FF3CF469537952795A795CC
S1131A30F0405395C9F77EF41F16BA0B620B730B73
S1131A40840BBAF09150A1F0FF0FBB1F661F771FE4
S1131A50881FC2F70EC0BA0F621F731F841F48F499
S1131A60879577956795B795F7959E3F08F0B0CF22
S1131A709395880F08F09927EE0F97958795089509
S1131A800E94B10D08F481E008950E94050E88F0CB
S1131A909F5798F0B92F9927B751B0F0E1F0660F2E
S1131AA0771F881F991F1AF0BA95C9F714C0B1306F
S1131AB091F00E941F0EB1E008950C941F0E672F41
S1131AC0782F8827B85F39F0B93FCCF3869577959E
S1131AD06795B395D9F73EF4909580957095619587
S1131AE07F4F8F4F9F4F0895E89409C097FB3EF4B2
S1131AF090958095709561957F4F8F4F9F4F992357
S1131B00A9F0F92F96E9BB279395F69587957795D4
S1131B106795B795F111F8CFFAF4BB0F11F460FF94
S1131B201BC06F5F7F4F8F4F9F4F16C0882311F0EC
S1131B3096E911C0772321F09EE8872F762F05C000
S1131B40662371F096E8862F70E060E02AF09A959B
S1131B50660F771F881FDAF7880F9695879597F990
S1131B600895990F0008550FAA0BE0E8FEEF16162A
S1131B701706E807F907C0F012161306E407F5077D
S1131B8098F0621B730B840B950B39F40A2661F0F1
S1131B90232B242B252B21F408950A2609F4A14094
S1131BA0A6958FEF811D811D089597F99F6780E8A1
S1131BB070E060E008959FEF80EC089500240A949B
S1131BC01616170618060906089500240A94121614
S1131BD01306140605060895092E0394000C11F447
S1131BE0882352F0BB0F40F4BF2B11F460FF04C0F4
S1131BF06F5F7F4F8F4F9F4F089557FD9058440F4D
S1131C00551F59F05F3F71F04795880F97FB991F57
S1131C1061F09F3F79F08795089512161306140614
S1131C20551FF2CF4695F1DF08C0161617061806A1
S1131C30991FF1CF86957105610508940895E8947C
S1131C40BB2766277727CB0197F908950E94B10D2A
S1131C5008F48FEF08950E943E0E0C94EC0D0E9440
S1131C60DE0D38F00E94E50D20F0952311F00C9460
S1131C70D50D0C94DB0D11240C94200E0E94FD0D47
S1131C8070F3959FC1F3950F50E0551F629FF001CB
S1131C90729FBB27F00DB11D639FAA27F00DB11DE4
S1131CA0AA1F649F6627B00DA11D661F829F22276D
S1131CB0B00DA11D621F739FB00DA11D621F839FF4
S1131CC0A00D611D221F749F3327A00D611D231FCA
S1131CD0849F600D211D822F762F6A2F11249F5718
S1131CE050409AF0F1F088234AF0EE0FFF1FBB1F1B
S1131CF0661F771F881F91505040A9F79E3F5105DA
S1131D0080F00C94D50D0C94200E5F3FE4F3983EC4
S1131D10D4F3869577956795B795F795E7959F5F83
S1131D20C1F7FE2B880F911D9695879597F9089515
S1131D30991B79E004C0991F961708F0961B881F19
S1131D407A95C9F780950895A1E21A2EAA1BBB1BA8
S1131D50FD010DC0AA1FBB1FEE1FFF1FA217B30773
S1131D60E407F50720F0A21BB30BE40BF50B661F89
S1131D70771F881F991F1A9469F76095709580954D
S1131D8090959B01AC01BD01CF010895052E97FBF1
S1131D901EF400940E94DD0E57FD07D00E94A40E8D
S1131DA007FC03D04EF40C94DD0E5095409530950D
S1131DB021953F4F4F4F5F4F0895909580957095B3
S1131DC061957F4F8F4F9F4F0895AEE0B0E0EBEEEB
S1131DD0FEE00C94A6110D891E8986E08C831A837B
S1131DE009838FEF9FE79E838D83AE01475E5F4F2C
S1131DF06F89788DCE0101960E94070FEF81F885D7
S1131E00E00FF11F10822E96E4E00C94C211ABE0B7
S1131E10B0E0EDE0FFE00C9498116C017B018A01C5
S1131E20FC0117821682838181FFCCC1CE01019609
S1131E303C01F6019381F70193FD859193FF819114
S1131E407F01882309F4BAC1853239F493FD859161
S1131E5093FF81917F01853229F4B60190E00E94BD
S1131E60FE10E7CF912C212C312CFFE1F315D8F093
S1131E708B3279F038F4803279F08332A1F4232D57
S1131E8020611DC08D3261F0803369F4232D2160FF
S1131E9016C0832D8260382EE32DE4603E2E2AC0C6
S1131EA0F32DF8601DC037FC2DC020ED280F2A301B
S1131EB040F08E32B9F436FC81C1232D2064322ED9
S1131EC019C036FE06C08AE0989E200D1124922E79
S1131ED011C0EAE02E9E200D1124222EF32DF06273
S1131EE03F2E08C08C3621F4832D8068382E02C022
S1131EF0883641F4F70193FD859193FF81917F0129
S1131F008111B3CF982F9F7D9554933028F40C5FA3
S1131F101F4F9FE399830DC0833631F0833771F0EF
S1131F20833509F059C021C0F801808189830E5F8F
S1131F301F4F88248394912C530113C02801F2E08D
S1131F404F0E511CF801A080B18036FE03C0692DEC
S1131F5070E002C06FEF7FEFC5010E94F3104C01E7
S1131F608201F32DFF773F2E16C0280122E0420E96
S1131F70511CF801A080B18036FE03C0692D70E0C9
S1131F8002C06FEF7FEFC5010E94E8104C01F32DF2
S1131F90F0683F2E820133FC1BC0822D90E088162E
S1131FA09906B0F4B60180E290E00E94FE102A94F3
S1131FB0F4CFF50137FC859137FE81915F01B601BD
S1131FC090E00E94FE1021102A9421E0821A9108C8
S1131FD08114910471F7E8C0843611F0893641F513
S1131FE0F80137FE07C060817181828193810C5FA3
S1131FF01F4F08C060817181072E000C880B990B5C
S11320000E5F1F4FF32DFF763F2E97FF09C090956B
S11320108095709561957F4F8F4F9F4FF0683F2E4D
S11320202AE030E0A3010E943A11882E861845C0A8
S1132030853731F4232D2F7EB22E2AE030E025C0DF
S1132040932D997FB92E8F36C1F018F4883579F025
S1132050B5C0803719F0883721F0B0C0E92FE061AE
S1132060BE2EB4FE0DC0FB2DF460BF2E09C034FE9D
S11320700AC0292F2660B22E06C028E030E005C031
S113208020E130E002C020E132E0F801B7FE07C0F1
S113209060817181828193810C5F1F4F06C06081D2
S11320A0718180E090E00E5F1F4FA3010E943A11FE
S11320B0882E8618FB2DFF773F2E36FE0DC0232D6C
S11320C02E7FA22E891458F434FE0BC032FC09C0B2
S11320D0832D8E7EA82E05C0B82CA32C03C0B82C4B
S11320E001C0B92CA4FE0FC0FE01E80DF11D8081D2
S11320F0803321F49A2D997EA92E09C0A2FE06C030
S1132100B394B39404C08A2D867809F0B394A3FCE5
S113211011C0A0FE06C0B21488F4280C922C9B189F
S11321200EC0B21460F4B60180E290E00E94FE108A
S1132130B394F7CFB21418F42B1802C0982C212CA6
S1132140A4FE10C0B60180E390E00E94FE10A2FE3F
S113215017C0A1FC03C088E790E002C088E590E0C6
S1132160B6010CC08A2D867859F0A1FE02C08BE21C
S113217001C080E2A7FC8DE2B60190E00E94FE104F
S1132180891438F4B60180E390E00E94FE109A941A
S1132190F7CF8A94F301E80DF11D8081B60190E038
S11321A00E94FE108110F5CF222009F442CEB60120
S11321B080E290E00E94FE102A94F6CFF601868118
S11321C0978102C08FEF9FEF2B96E2E10C94B4113C
S11321D0FC010590615070400110D8F780959095EE
S11321E08E0F9F1F0895FC016150704001900110F3
S11321F0D8F7809590958E0F9F1F08950F931F9386
S1132200CF93DF93FB01238121FD03C08FEF9FEF69
S11322102CC022FF16C04681578124813581421784
S1132220530744F4A081B1819D012F5F3F4F318357
S113223020838C93268137812F5F3F4F37832683FA
S113224014C08B01EC01FB010084F185E02D09959C
S1132250892BE1F6D80116968D919C9117970196DA
S113226017969C938E931697CE01DF91CF911F9171
S11322700F910895FA01AA27283051F1203181F1F4
S1132280E8946F936E7F6E5F7F4F8F4F9F4FAF4F7A
S1132290B1E03ED0B4E03CD0670F781F891F9A1F8D
S11322A0A11D680F791F8A1F911DA11D6A0F711D41
S11322B0811D911DA11D20D009F468943F912AE04D
S11322C0269F11243019305D3193DEF6CF01089535
S11322D0462F4770405D4193B3E00FD0C9F7F6CF66
S11322E0462F4F70405D4A3318F0495D31FD40522E
S11322F0419302D0A9F7EACFB4E0A69597958795C4
S113230077956795BA95C9F70097610571050895A2
S11323109B01AC010A2E069457954795379527954E
S1132320BA95C9F7620F731F841F951FA01D0895E6
S11323302F923F924F925F926F927F928F929F92D1
S1132340AF92BF92CF92DF92EF92FF920F931F93BF
S1132350CF93DF93CDB7DEB7CA1BDB0B0FB6F89470
S1132360DEBF0FBECDBF09942A88398848885F84B0
S11323706E847D848C849B84AA84B984C884DF8021
S1132380EE80FD800C811B81AA81B981CE0FD11D05
S11323900FB6F894DEBF0FBECDBFED010895F894DB
S10523A0FFCF69
S11323A201010101010104092575004D0041004D9F
S11323B26F646F00542E5664007300542E566D00E1
S11323C2542E416D006C7578006D6D2F6800632F7B
S10B23D26D696E007C003C0003
S9030000FC
